{
  "address": "0x2F3E2C77b72dE939d72a18324885465c46a15e2c",
  "abi": [
    {
      "inputs": [
        {
          "internalType": "uint256",
          "name": "maximumSupply",
          "type": "uint256"
        },
        {
          "internalType": "uint256",
          "name": "initialSupplyToOwner",
          "type": "uint256"
        }
      ],
      "stateMutability": "nonpayable",
      "type": "constructor"
    },
    {
      "anonymous": false,
      "inputs": [
        {
          "indexed": true,
          "internalType": "address",
          "name": "owner",
          "type": "address"
        },
        {
          "indexed": true,
          "internalType": "address",
          "name": "spender",
          "type": "address"
        },
        {
          "indexed": false,
          "internalType": "uint256",
          "name": "value",
          "type": "uint256"
        }
      ],
      "name": "Approval",
      "type": "event"
    },
    {
      "anonymous": false,
      "inputs": [
        {
          "indexed": true,
          "internalType": "address",
          "name": "from",
          "type": "address"
        },
        {
          "indexed": true,
          "internalType": "address",
          "name": "to",
          "type": "address"
        },
        {
          "indexed": false,
          "internalType": "uint256",
          "name": "value",
          "type": "uint256"
        }
      ],
      "name": "Transfer",
      "type": "event"
    },
    {
      "inputs": [
        {
          "internalType": "address",
          "name": "owner",
          "type": "address"
        },
        {
          "internalType": "address",
          "name": "spender",
          "type": "address"
        }
      ],
      "name": "allowance",
      "outputs": [
        {
          "internalType": "uint256",
          "name": "",
          "type": "uint256"
        }
      ],
      "stateMutability": "view",
      "type": "function"
    },
    {
      "inputs": [
        {
          "internalType": "address",
          "name": "spender",
          "type": "address"
        },
        {
          "internalType": "uint256",
          "name": "amount",
          "type": "uint256"
        }
      ],
      "name": "approve",
      "outputs": [
        {
          "internalType": "bool",
          "name": "",
          "type": "bool"
        }
      ],
      "stateMutability": "nonpayable",
      "type": "function"
    },
    {
      "inputs": [
        {
          "internalType": "address",
          "name": "account",
          "type": "address"
        }
      ],
      "name": "balanceOf",
      "outputs": [
        {
          "internalType": "uint256",
          "name": "",
          "type": "uint256"
        }
      ],
      "stateMutability": "view",
      "type": "function"
    },
    {
      "inputs": [
        {
          "internalType": "uint256",
          "name": "amount",
          "type": "uint256"
        }
      ],
      "name": "burn",
      "outputs": [],
      "stateMutability": "nonpayable",
      "type": "function"
    },
    {
      "inputs": [
        {
          "internalType": "address",
          "name": "account",
          "type": "address"
        },
        {
          "internalType": "uint256",
          "name": "amount",
          "type": "uint256"
        }
      ],
      "name": "burnFrom",
      "outputs": [],
      "stateMutability": "nonpayable",
      "type": "function"
    },
    {
      "inputs": [],
      "name": "cap",
      "outputs": [
        {
          "internalType": "uint256",
          "name": "",
          "type": "uint256"
        }
      ],
      "stateMutability": "view",
      "type": "function"
    },
    {
      "inputs": [],
      "name": "decimals",
      "outputs": [
        {
          "internalType": "uint8",
          "name": "",
          "type": "uint8"
        }
      ],
      "stateMutability": "view",
      "type": "function"
    },
    {
      "inputs": [
        {
          "internalType": "address",
          "name": "spender",
          "type": "address"
        },
        {
          "internalType": "uint256",
          "name": "subtractedValue",
          "type": "uint256"
        }
      ],
      "name": "decreaseAllowance",
      "outputs": [
        {
          "internalType": "bool",
          "name": "",
          "type": "bool"
        }
      ],
      "stateMutability": "nonpayable",
      "type": "function"
    },
    {
      "inputs": [],
      "name": "destroy",
      "outputs": [],
      "stateMutability": "nonpayable",
      "type": "function"
    },
    {
      "inputs": [
        {
          "internalType": "address",
          "name": "spender",
          "type": "address"
        },
        {
          "internalType": "uint256",
          "name": "addedValue",
          "type": "uint256"
        }
      ],
      "name": "increaseAllowance",
      "outputs": [
        {
          "internalType": "bool",
          "name": "",
          "type": "bool"
        }
      ],
      "stateMutability": "nonpayable",
      "type": "function"
    },
    {
      "inputs": [],
      "name": "name",
      "outputs": [
        {
          "internalType": "string",
          "name": "",
          "type": "string"
        }
      ],
      "stateMutability": "view",
      "type": "function"
    },
    {
      "inputs": [],
      "name": "owner",
      "outputs": [
        {
          "internalType": "address payable",
          "name": "",
          "type": "address"
        }
      ],
      "stateMutability": "view",
      "type": "function"
    },
    {
      "inputs": [],
      "name": "symbol",
      "outputs": [
        {
          "internalType": "string",
          "name": "",
          "type": "string"
        }
      ],
      "stateMutability": "view",
      "type": "function"
    },
    {
      "inputs": [],
      "name": "totalSupply",
      "outputs": [
        {
          "internalType": "uint256",
          "name": "",
          "type": "uint256"
        }
      ],
      "stateMutability": "view",
      "type": "function"
    },
    {
      "inputs": [
        {
          "internalType": "address",
          "name": "to",
          "type": "address"
        },
        {
          "internalType": "uint256",
          "name": "amount",
          "type": "uint256"
        }
      ],
      "name": "transfer",
      "outputs": [
        {
          "internalType": "bool",
          "name": "",
          "type": "bool"
        }
      ],
      "stateMutability": "nonpayable",
      "type": "function"
    },
    {
      "inputs": [
        {
          "internalType": "address",
          "name": "from",
          "type": "address"
        },
        {
          "internalType": "address",
          "name": "to",
          "type": "address"
        },
        {
          "internalType": "uint256",
          "name": "amount",
          "type": "uint256"
        }
      ],
      "name": "transferFrom",
      "outputs": [
        {
          "internalType": "bool",
          "name": "",
          "type": "bool"
        }
      ],
      "stateMutability": "nonpayable",
      "type": "function"
    }
  ],
  "transactionHash": "0x37f2e1faa32a1f9e005d3cb8f44380180dd7f6150b30ff2abd4026d17b0e90a2",
  "args": [
    "300000000000",
    "100000000000"
  ],
  "numDeployments": 1,
  "solcInputHash": "1a5dd5a7c93692889f271cebbc392246",
  "bytecode": "0x60a06040523480156200001157600080fd5b50604051620025a2380380620025a283398181016040528101906200003791906200059f565b62000047620001f860201b60201c565b600a62000055919062000776565b82620000629190620007c7565b6040518060400160405280600881526020017f443244546f6b656e0000000000000000000000000000000000000000000000008152506040518060400160405280600381526020017f44324400000000000000000000000000000000000000000000000000000000008152508160039080519060200190620000e6929190620004af565b508060049080519060200190620000ff929190620004af565b5050506000811162000148576040517f08c379a00000000000000000000000000000000000000000000000000000000081526004016200013f9062000889565b60405180910390fd5b80608081815250505033600560006101000a81548173ffffffffffffffffffffffffffffffffffffffff021916908373ffffffffffffffffffffffffffffffffffffffff160217905550620001f0600560009054906101000a900473ffffffffffffffffffffffffffffffffffffffff16620001c9620001f860201b60201c565b600a620001d7919062000776565b83620001e49190620007c7565b6200020160201b60201c565b505062000a7f565b60006012905090565b620002116200029260201b60201c565b81620002276200029c60201b620004001760201c565b620002339190620008ab565b111562000277576040517f08c379a00000000000000000000000000000000000000000000000000000000081526004016200026e9062000958565b60405180910390fd5b6200028e8282620002a660201b620007c11760201c565b5050565b6000608051905090565b6000600254905090565b620002b66200029260201b60201c565b81620002cc6200029c60201b620004001760201c565b620002d89190620008ab565b11156200031c576040517f08c379a0000000000000000000000000000000000000000000000000000000008152600401620003139062000958565b60405180910390fd5b6200033382826200033760201b6200082b1760201c565b5050565b600073ffffffffffffffffffffffffffffffffffffffff168273ffffffffffffffffffffffffffffffffffffffff161415620003aa576040517f08c379a0000000000000000000000000000000000000000000000000000000008152600401620003a190620009ca565b60405180910390fd5b620003be60008383620004a560201b60201c565b8060026000828254620003d29190620008ab565b92505081905550806000808473ffffffffffffffffffffffffffffffffffffffff1673ffffffffffffffffffffffffffffffffffffffff168152602001908152602001600020600082825401925050819055508173ffffffffffffffffffffffffffffffffffffffff16600073ffffffffffffffffffffffffffffffffffffffff167fddf252ad1be2c89b69c2b068fc378daa952ba7f163c4a11628f55a4df523b3ef83604051620004859190620009fd565b60405180910390a3620004a160008383620004aa60201b60201c565b5050565b505050565b505050565b828054620004bd9062000a49565b90600052602060002090601f016020900481019282620004e157600085556200052d565b82601f10620004fc57805160ff19168380011785556200052d565b828001600101855582156200052d579182015b828111156200052c5782518255916020019190600101906200050f565b5b5090506200053c919062000540565b5090565b5b808211156200055b57600081600090555060010162000541565b5090565b600080fd5b6000819050919050565b620005798162000564565b81146200058557600080fd5b50565b60008151905062000599816200056e565b92915050565b60008060408385031215620005b957620005b86200055f565b5b6000620005c98582860162000588565b9250506020620005dc8582860162000588565b9150509250929050565b7f4e487b7100000000000000000000000000000000000000000000000000000000600052601160045260246000fd5b60008160011c9050919050565b6000808291508390505b600185111562000674578086048111156200064c576200064b620005e6565b5b60018516156200065c5780820291505b80810290506200066c8562000615565b94506200062c565b94509492505050565b6000826200068f576001905062000762565b816200069f576000905062000762565b8160018114620006b85760028114620006c357620006f9565b600191505062000762565b60ff841115620006d857620006d7620005e6565b5b8360020a915084821115620006f257620006f1620005e6565b5b5062000762565b5060208310610133831016604e8410600b8410161715620007335782820a9050838111156200072d576200072c620005e6565b5b62000762565b62000742848484600162000622565b925090508184048111156200075c576200075b620005e6565b5b81810290505b9392505050565b600060ff82169050919050565b6000620007838262000564565b9150620007908362000769565b9250620007bf7fffffffffffffffffffffffffffffffffffffffffffffffffffffffffffffffff84846200067d565b905092915050565b6000620007d48262000564565b9150620007e18362000564565b9250817fffffffffffffffffffffffffffffffffffffffffffffffffffffffffffffffff04831182151516156200081d576200081c620005e6565b5b828202905092915050565b600082825260208201905092915050565b7f45524332304361707065643a2063617020697320300000000000000000000000600082015250565b60006200087160158362000828565b91506200087e8262000839565b602082019050919050565b60006020820190508181036000830152620008a48162000862565b9050919050565b6000620008b88262000564565b9150620008c58362000564565b9250827fffffffffffffffffffffffffffffffffffffffffffffffffffffffffffffffff03821115620008fd57620008fc620005e6565b5b828201905092915050565b7f45524332304361707065643a2063617020657863656564656400000000000000600082015250565b60006200094060198362000828565b91506200094d8262000908565b602082019050919050565b60006020820190508181036000830152620009738162000931565b9050919050565b7f45524332303a206d696e7420746f20746865207a65726f206164647265737300600082015250565b6000620009b2601f8362000828565b9150620009bf826200097a565b602082019050919050565b60006020820190508181036000830152620009e581620009a3565b9050919050565b620009f78162000564565b82525050565b600060208201905062000a146000830184620009ec565b92915050565b7f4e487b7100000000000000000000000000000000000000000000000000000000600052602260045260246000fd5b6000600282049050600182168062000a6257607f821691505b6020821081141562000a795762000a7862000a1a565b5b50919050565b608051611b0762000a9b60003960006104460152611b076000f3fe608060405234801561001057600080fd5b50600436106101005760003560e01c806370a082311161009757806395d89b411161006657806395d89b411461029d578063a457c2d7146102bb578063a9059cbb146102eb578063dd62ed3e1461031b57610100565b806370a082311461022957806379cc67901461025957806383197ef0146102755780638da5cb5b1461027f57610100565b8063313ce567116100d3578063313ce567146101a1578063355274ea146101bf57806339509351146101dd57806342966c681461020d57610100565b806306fdde0314610105578063095ea7b31461012357806318160ddd1461015357806323b872dd14610171575b600080fd5b61010d61034b565b60405161011a91906110ca565b60405180910390f35b61013d60048036038101906101389190611185565b6103dd565b60405161014a91906111e0565b60405180910390f35b61015b610400565b604051610168919061120a565b60405180910390f35b61018b60048036038101906101869190611225565b61040a565b60405161019891906111e0565b60405180910390f35b6101a9610439565b6040516101b69190611294565b60405180910390f35b6101c7610442565b6040516101d4919061120a565b60405180910390f35b6101f760048036038101906101f29190611185565b61046a565b60405161020491906111e0565b60405180910390f35b610227600480360381019061022291906112af565b6104a1565b005b610243600480360381019061023e91906112dc565b6104b5565b604051610250919061120a565b60405180910390f35b610273600480360381019061026e9190611185565b6104fd565b005b61027d61051d565b005b6102876105e8565b604051610294919061132a565b60405180910390f35b6102a561060e565b6040516102b291906110ca565b60405180910390f35b6102d560048036038101906102d09190611185565b6106a0565b6040516102e291906111e0565b60405180910390f35b61030560048036038101906103009190611185565b610717565b60405161031291906111e0565b60405180910390f35b61033560048036038101906103309190611345565b61073a565b604051610342919061120a565b60405180910390f35b60606003805461035a906113b4565b80601f0160208091040260200160405190810160405280929190818152602001828054610386906113b4565b80156103d35780601f106103a8576101008083540402835291602001916103d3565b820191906000526020600020905b8154815290600101906020018083116103b657829003601f168201915b5050505050905090565b6000806103e8610982565b90506103f581858561098a565b600191505092915050565b6000600254905090565b600080610415610982565b9050610422858285610b55565b61042d858585610be1565b60019150509392505050565b60006012905090565b60007f0000000000000000000000000000000000000000000000000000000000000000905090565b600080610475610982565b9050610496818585610487858961073a565b6104919190611415565b61098a565b600191505092915050565b6104b26104ac610982565b82610e59565b50565b60008060008373ffffffffffffffffffffffffffffffffffffffff1673ffffffffffffffffffffffffffffffffffffffff168152602001908152602001600020549050919050565b61050f82610509610982565b83610b55565b6105198282610e59565b5050565b600560009054906101000a900473ffffffffffffffffffffffffffffffffffffffff1673ffffffffffffffffffffffffffffffffffffffff163373ffffffffffffffffffffffffffffffffffffffff16146105ad576040517f08c379a00000000000000000000000000000000000000000000000000000000081526004016105a4906114dd565b60405180910390fd5b600560009054906101000a900473ffffffffffffffffffffffffffffffffffffffff1673ffffffffffffffffffffffffffffffffffffffff16ff5b600560009054906101000a900473ffffffffffffffffffffffffffffffffffffffff1681565b60606004805461061d906113b4565b80601f0160208091040260200160405190810160405280929190818152602001828054610649906113b4565b80156106965780601f1061066b57610100808354040283529160200191610696565b820191906000526020600020905b81548152906001019060200180831161067957829003601f168201915b5050505050905090565b6000806106ab610982565b905060006106b9828661073a565b9050838110156106fe576040517f08c379a00000000000000000000000000000000000000000000000000000000081526004016106f59061156f565b60405180910390fd5b61070b828686840361098a565b60019250505092915050565b600080610722610982565b905061072f818585610be1565b600191505092915050565b6000600160008473ffffffffffffffffffffffffffffffffffffffff1673ffffffffffffffffffffffffffffffffffffffff16815260200190815260200160002060008373ffffffffffffffffffffffffffffffffffffffff1673ffffffffffffffffffffffffffffffffffffffff16815260200190815260200160002054905092915050565b6107c9610442565b816107d2610400565b6107dc9190611415565b111561081d576040517f08c379a0000000000000000000000000000000000000000000000000000000008152600401610814906115db565b60405180910390fd5b610827828261082b565b5050565b600073ffffffffffffffffffffffffffffffffffffffff168273ffffffffffffffffffffffffffffffffffffffff16141561089b576040517f08c379a000000000000000000000000000000000000000000000000000000000815260040161089290611647565b60405180910390fd5b6108a760008383611027565b80600260008282546108b99190611415565b92505081905550806000808473ffffffffffffffffffffffffffffffffffffffff1673ffffffffffffffffffffffffffffffffffffffff168152602001908152602001600020600082825401925050819055508173ffffffffffffffffffffffffffffffffffffffff16600073ffffffffffffffffffffffffffffffffffffffff167fddf252ad1be2c89b69c2b068fc378daa952ba7f163c4a11628f55a4df523b3ef8360405161096a919061120a565b60405180910390a361097e6000838361102c565b5050565b600033905090565b600073ffffffffffffffffffffffffffffffffffffffff168373ffffffffffffffffffffffffffffffffffffffff1614156109fa576040517f08c379a00000000000000000000000000000000000000000000000000000000081526004016109f1906116d9565b60405180910390fd5b600073ffffffffffffffffffffffffffffffffffffffff168273ffffffffffffffffffffffffffffffffffffffff161415610a6a576040517f08c379a0000000000000000000000000000000000000000000000000000000008152600401610a619061176b565b60405180910390fd5b80600160008573ffffffffffffffffffffffffffffffffffffffff1673ffffffffffffffffffffffffffffffffffffffff16815260200190815260200160002060008473ffffffffffffffffffffffffffffffffffffffff1673ffffffffffffffffffffffffffffffffffffffff168152602001908152602001600020819055508173ffffffffffffffffffffffffffffffffffffffff168373ffffffffffffffffffffffffffffffffffffffff167f8c5be1e5ebec7d5bd14f71427d1e84f3dd0314c0f7b2291e5b200ac8c7c3b92583604051610b48919061120a565b60405180910390a3505050565b6000610b61848461073a565b90507fffffffffffffffffffffffffffffffffffffffffffffffffffffffffffffffff8114610bdb5781811015610bcd576040517f08c379a0000000000000000000000000000000000000000000000000000000008152600401610bc4906117d7565b60405180910390fd5b610bda848484840361098a565b5b50505050565b600073ffffffffffffffffffffffffffffffffffffffff168373ffffffffffffffffffffffffffffffffffffffff161415610c51576040517f08c379a0000000000000000000000000000000000000000000000000000000008152600401610c4890611869565b60405180910390fd5b600073ffffffffffffffffffffffffffffffffffffffff168273ffffffffffffffffffffffffffffffffffffffff161415610cc1576040517f08c379a0000000000000000000000000000000000000000000000000000000008152600401610cb8906118fb565b60405180910390fd5b610ccc838383611027565b60008060008573ffffffffffffffffffffffffffffffffffffffff1673ffffffffffffffffffffffffffffffffffffffff16815260200190815260200160002054905081811015610d52576040517f08c379a0000000000000000000000000000000000000000000000000000000008152600401610d499061198d565b60405180910390fd5b8181036000808673ffffffffffffffffffffffffffffffffffffffff1673ffffffffffffffffffffffffffffffffffffffff16815260200190815260200160002081905550816000808573ffffffffffffffffffffffffffffffffffffffff1673ffffffffffffffffffffffffffffffffffffffff168152602001908152602001600020600082825401925050819055508273ffffffffffffffffffffffffffffffffffffffff168473ffffffffffffffffffffffffffffffffffffffff167fddf252ad1be2c89b69c2b068fc378daa952ba7f163c4a11628f55a4df523b3ef84604051610e40919061120a565b60405180910390a3610e5384848461102c565b50505050565b600073ffffffffffffffffffffffffffffffffffffffff168273ffffffffffffffffffffffffffffffffffffffff161415610ec9576040517f08c379a0000000000000000000000000000000000000000000000000000000008152600401610ec090611a1f565b60405180910390fd5b610ed582600083611027565b60008060008473ffffffffffffffffffffffffffffffffffffffff1673ffffffffffffffffffffffffffffffffffffffff16815260200190815260200160002054905081811015610f5b576040517f08c379a0000000000000000000000000000000000000000000000000000000008152600401610f5290611ab1565b60405180910390fd5b8181036000808573ffffffffffffffffffffffffffffffffffffffff1673ffffffffffffffffffffffffffffffffffffffff1681526020019081526020016000208190555081600260008282540392505081905550600073ffffffffffffffffffffffffffffffffffffffff168373ffffffffffffffffffffffffffffffffffffffff167fddf252ad1be2c89b69c2b068fc378daa952ba7f163c4a11628f55a4df523b3ef8460405161100e919061120a565b60405180910390a36110228360008461102c565b505050565b505050565b505050565b600081519050919050565b600082825260208201905092915050565b60005b8381101561106b578082015181840152602081019050611050565b8381111561107a576000848401525b50505050565b6000601f19601f8301169050919050565b600061109c82611031565b6110a6818561103c565b93506110b681856020860161104d565b6110bf81611080565b840191505092915050565b600060208201905081810360008301526110e48184611091565b905092915050565b600080fd5b600073ffffffffffffffffffffffffffffffffffffffff82169050919050565b600061111c826110f1565b9050919050565b61112c81611111565b811461113757600080fd5b50565b60008135905061114981611123565b92915050565b6000819050919050565b6111628161114f565b811461116d57600080fd5b50565b60008135905061117f81611159565b92915050565b6000806040838503121561119c5761119b6110ec565b5b60006111aa8582860161113a565b92505060206111bb85828601611170565b9150509250929050565b60008115159050919050565b6111da816111c5565b82525050565b60006020820190506111f560008301846111d1565b92915050565b6112048161114f565b82525050565b600060208201905061121f60008301846111fb565b92915050565b60008060006060848603121561123e5761123d6110ec565b5b600061124c8682870161113a565b935050602061125d8682870161113a565b925050604061126e86828701611170565b9150509250925092565b600060ff82169050919050565b61128e81611278565b82525050565b60006020820190506112a96000830184611285565b92915050565b6000602082840312156112c5576112c46110ec565b5b60006112d384828501611170565b91505092915050565b6000602082840312156112f2576112f16110ec565b5b60006113008482850161113a565b91505092915050565b6000611314826110f1565b9050919050565b61132481611309565b82525050565b600060208201905061133f600083018461131b565b92915050565b6000806040838503121561135c5761135b6110ec565b5b600061136a8582860161113a565b925050602061137b8582860161113a565b9150509250929050565b7f4e487b7100000000000000000000000000000000000000000000000000000000600052602260045260246000fd5b600060028204905060018216806113cc57607f821691505b602082108114156113e0576113df611385565b5b50919050565b7f4e487b7100000000000000000000000000000000000000000000000000000000600052601160045260246000fd5b60006114208261114f565b915061142b8361114f565b9250827fffffffffffffffffffffffffffffffffffffffffffffffffffffffffffffffff038211156114605761145f6113e6565b5b828201905092915050565b7f4f6e6c7920746865206f776e65722063616e2063616c6c20746869732066756e60008201527f6374696f6e000000000000000000000000000000000000000000000000000000602082015250565b60006114c760258361103c565b91506114d28261146b565b604082019050919050565b600060208201905081810360008301526114f6816114ba565b9050919050565b7f45524332303a2064656372656173656420616c6c6f77616e63652062656c6f7760008201527f207a65726f000000000000000000000000000000000000000000000000000000602082015250565b600061155960258361103c565b9150611564826114fd565b604082019050919050565b600060208201905081810360008301526115888161154c565b9050919050565b7f45524332304361707065643a2063617020657863656564656400000000000000600082015250565b60006115c560198361103c565b91506115d08261158f565b602082019050919050565b600060208201905081810360008301526115f4816115b8565b9050919050565b7f45524332303a206d696e7420746f20746865207a65726f206164647265737300600082015250565b6000611631601f8361103c565b915061163c826115fb565b602082019050919050565b6000602082019050818103600083015261166081611624565b9050919050565b7f45524332303a20617070726f76652066726f6d20746865207a65726f2061646460008201527f7265737300000000000000000000000000000000000000000000000000000000602082015250565b60006116c360248361103c565b91506116ce82611667565b604082019050919050565b600060208201905081810360008301526116f2816116b6565b9050919050565b7f45524332303a20617070726f766520746f20746865207a65726f20616464726560008201527f7373000000000000000000000000000000000000000000000000000000000000602082015250565b600061175560228361103c565b9150611760826116f9565b604082019050919050565b6000602082019050818103600083015261178481611748565b9050919050565b7f45524332303a20696e73756666696369656e7420616c6c6f77616e6365000000600082015250565b60006117c1601d8361103c565b91506117cc8261178b565b602082019050919050565b600060208201905081810360008301526117f0816117b4565b9050919050565b7f45524332303a207472616e736665722066726f6d20746865207a65726f20616460008201527f6472657373000000000000000000000000000000000000000000000000000000602082015250565b600061185360258361103c565b915061185e826117f7565b604082019050919050565b6000602082019050818103600083015261188281611846565b9050919050565b7f45524332303a207472616e7366657220746f20746865207a65726f206164647260008201527f6573730000000000000000000000000000000000000000000000000000000000602082015250565b60006118e560238361103c565b91506118f082611889565b604082019050919050565b60006020820190508181036000830152611914816118d8565b9050919050565b7f45524332303a207472616e7366657220616d6f756e742065786365656473206260008201527f616c616e63650000000000000000000000000000000000000000000000000000602082015250565b600061197760268361103c565b91506119828261191b565b604082019050919050565b600060208201905081810360008301526119a68161196a565b9050919050565b7f45524332303a206275726e2066726f6d20746865207a65726f2061646472657360008201527f7300000000000000000000000000000000000000000000000000000000000000602082015250565b6000611a0960218361103c565b9150611a14826119ad565b604082019050919050565b60006020820190508181036000830152611a38816119fc565b9050919050565b7f45524332303a206275726e20616d6f756e7420657863656564732062616c616e60008201527f6365000000000000000000000000000000000000000000000000000000000000602082015250565b6000611a9b60228361103c565b9150611aa682611a3f565b604082019050919050565b60006020820190508181036000830152611aca81611a8e565b905091905056fea2646970667358221220ed166b44938d5cebfae65689844743a0dfc3b9843b6abb89be8ab2ab2d68c37864736f6c63430008090033",
  "devdoc": {
    "kind": "dev",
    "methods": {
      "allowance(address,address)": {
        "details": "See {IERC20-allowance}."
      },
      "approve(address,uint256)": {
        "details": "See {IERC20-approve}. NOTE: If `amount` is the maximum `uint256`, the allowance is not updated on `transferFrom`. This is semantically equivalent to an infinite approval. Requirements: - `spender` cannot be the zero address."
      },
      "balanceOf(address)": {
        "details": "See {IERC20-balanceOf}."
      },
      "burn(uint256)": {
        "details": "Destroys `amount` tokens from the caller. See {ERC20-_burn}."
      },
      "burnFrom(address,uint256)": {
        "details": "Destroys `amount` tokens from `account`, deducting from the caller's allowance. See {ERC20-_burn} and {ERC20-allowance}. Requirements: - the caller must have allowance for ``accounts``'s tokens of at least `amount`."
      },
      "cap()": {
        "details": "Returns the cap on the token's total supply."
      },
      "constructor": {
        "params": {
          "initialSupplyToOwner": "is the number of tokens that will be minted and sent to the owner's address Remove the comment from minerReward if you wish to give rewards to the miners",
          "maximumSupply": "is the maximum number of tokens that can be minted"
        }
      },
      "decimals()": {
        "details": "Returns the number of decimals used to get its user representation. For example, if `decimals` equals `2`, a balance of `505` tokens should be displayed to a user as `5.05` (`505 / 10 ** 2`). Tokens usually opt for a value of 18, imitating the relationship between Ether and Wei. This is the value {ERC20} uses, unless this function is overridden; NOTE: This information is only used for _display_ purposes: it in no way affects any of the arithmetic of the contract, including {IERC20-balanceOf} and {IERC20-transfer}."
      },
      "decreaseAllowance(address,uint256)": {
        "details": "Atomically decreases the allowance granted to `spender` by the caller. This is an alternative to {approve} that can be used as a mitigation for problems described in {IERC20-approve}. Emits an {Approval} event indicating the updated allowance. Requirements: - `spender` cannot be the zero address. - `spender` must have allowance for the caller of at least `subtractedValue`."
      },
      "increaseAllowance(address,uint256)": {
        "details": "Atomically increases the allowance granted to `spender` by the caller. This is an alternative to {approve} that can be used as a mitigation for problems described in {IERC20-approve}. Emits an {Approval} event indicating the updated allowance. Requirements: - `spender` cannot be the zero address."
      },
      "name()": {
        "details": "Returns the name of the token."
      },
      "symbol()": {
        "details": "Returns the symbol of the token, usually a shorter version of the name."
      },
      "totalSupply()": {
        "details": "See {IERC20-totalSupply}."
      },
      "transfer(address,uint256)": {
        "details": "See {IERC20-transfer}. Requirements: - `to` cannot be the zero address. - the caller must have a balance of at least `amount`."
      },
      "transferFrom(address,address,uint256)": {
        "details": "See {IERC20-transferFrom}. Emits an {Approval} event indicating the updated allowance. This is not required by the EIP. See the note at the beginning of {ERC20}. NOTE: Does not update the allowance if the current allowance is the maximum `uint256`. Requirements: - `from` and `to` cannot be the zero address. - `from` must have a balance of at least `amount`. - the caller must have allowance for ``from``'s tokens of at least `amount`."
      }
    },
    "version": 1
  },
  "userdoc": {
    "kind": "user",
    "methods": {},
    "version": 1
  },
  "storageLayout": {
    "storage": [
      {
        "astId": 15,
        "contract": "contracts/D2DToken.sol:D2DToken",
        "label": "_balances",
        "offset": 0,
        "slot": "0",
        "type": "t_mapping(t_address,t_uint256)"
      },
      {
        "astId": 21,
        "contract": "contracts/D2DToken.sol:D2DToken",
        "label": "_allowances",
        "offset": 0,
        "slot": "1",
        "type": "t_mapping(t_address,t_mapping(t_address,t_uint256))"
      },
      {
        "astId": 23,
        "contract": "contracts/D2DToken.sol:D2DToken",
        "label": "_totalSupply",
        "offset": 0,
        "slot": "2",
        "type": "t_uint256"
      },
      {
        "astId": 25,
        "contract": "contracts/D2DToken.sol:D2DToken",
        "label": "_name",
        "offset": 0,
        "slot": "3",
        "type": "t_string_storage"
      },
      {
        "astId": 27,
        "contract": "contracts/D2DToken.sol:D2DToken",
        "label": "_symbol",
        "offset": 0,
        "slot": "4",
        "type": "t_string_storage"
      },
      {
        "astId": 831,
        "contract": "contracts/D2DToken.sol:D2DToken",
        "label": "owner",
        "offset": 0,
        "slot": "5",
        "type": "t_address_payable"
      }
    ],
    "types": {
      "t_address": {
        "encoding": "inplace",
        "label": "address",
        "numberOfBytes": "20"
      },
      "t_address_payable": {
        "encoding": "inplace",
        "label": "address payable",
        "numberOfBytes": "20"
      },
      "t_mapping(t_address,t_mapping(t_address,t_uint256))": {
        "encoding": "mapping",
        "key": "t_address",
        "label": "mapping(address => mapping(address => uint256))",
        "numberOfBytes": "32",
        "value": "t_mapping(t_address,t_uint256)"
      },
      "t_mapping(t_address,t_uint256)": {
        "encoding": "mapping",
        "key": "t_address",
        "label": "mapping(address => uint256)",
        "numberOfBytes": "32",
        "value": "t_uint256"
      },
      "t_string_storage": {
        "encoding": "bytes",
        "label": "string",
        "numberOfBytes": "32"
      },
      "t_uint256": {
        "encoding": "inplace",
        "label": "uint256",
        "numberOfBytes": "32"
      }
    }
  }
}