{
  "address": "0xb372Cbd621c56caa05adBC61663CA8Ed9821Bb9A",
  "abi": [
    {
      "inputs": [
        {
          "internalType": "address",
          "name": "tokenAddress",
          "type": "address"
        },
        {
          "internalType": "uint256",
          "name": "firstRegisterTokenRewardAmount",
          "type": "uint256"
        }
      ],
      "stateMutability": "payable",
      "type": "constructor"
    },
    {
      "inputs": [],
      "name": "Fund__AlreadyRegistered",
      "type": "error"
    },
    {
      "inputs": [],
      "name": "Fund__NotEnoughTokens",
      "type": "error"
    },
    {
      "anonymous": false,
      "inputs": [
        {
          "indexed": true,
          "internalType": "address",
          "name": "from",
          "type": "address"
        },
        {
          "indexed": true,
          "internalType": "address",
          "name": "to",
          "type": "address"
        },
        {
          "indexed": false,
          "internalType": "uint256",
          "name": "amount",
          "type": "uint256"
        }
      ],
      "name": "TokenSent",
      "type": "event"
    },
    {
      "inputs": [],
      "name": "firstSignUpReward",
      "outputs": [],
      "stateMutability": "nonpayable",
      "type": "function"
    },
    {
      "inputs": [
        {
          "internalType": "uint256",
          "name": "amount",
          "type": "uint256"
        }
      ],
      "name": "fundContract",
      "outputs": [],
      "stateMutability": "nonpayable",
      "type": "function"
    },
    {
      "inputs": [
        {
          "internalType": "address",
          "name": "to",
          "type": "address"
        },
        {
          "internalType": "uint256",
          "name": "amount",
          "type": "uint256"
        }
      ],
      "name": "sendTokens",
      "outputs": [],
      "stateMutability": "nonpayable",
      "type": "function"
    },
    {
      "inputs": [],
      "name": "token",
      "outputs": [
        {
          "internalType": "contract FoxxiToken",
          "name": "",
          "type": "address"
        }
      ],
      "stateMutability": "view",
      "type": "function"
    }
  ],
  "transactionHash": "0xfc8f0bf0fb50476137d4c988710a0bf3fc9fdf130123d6aaea343e5879997920",
  "args": [
    "0x2F3E2C77b72dE939d72a18324885465c46a15e2c",
    "50"
  ],
  "numDeployments": 5,
  "solcInputHash": "d9e196fc9629f5e531c9caadbccd3938",
  "bytecode": "0x6080604052604051620014053803806200140583398181016040528101906200002991906200015e565b81600160006101000a81548173ffffffffffffffffffffffffffffffffffffffff021916908373ffffffffffffffffffffffffffffffffffffffff160217905550336000806101000a81548173ffffffffffffffffffffffffffffffffffffffff021916908373ffffffffffffffffffffffffffffffffffffffff160217905550806003819055505050620001a5565b600080fd5b600073ffffffffffffffffffffffffffffffffffffffff82169050919050565b6000620000eb82620000be565b9050919050565b620000fd81620000de565b81146200010957600080fd5b50565b6000815190506200011d81620000f2565b92915050565b6000819050919050565b620001388162000123565b81146200014457600080fd5b50565b60008151905062000158816200012d565b92915050565b60008060408385031215620001785762000177620000b9565b5b600062000188858286016200010c565b92505060206200019b8582860162000147565b9150509250929050565b61125080620001b56000396000f3fe608060405234801561001057600080fd5b506004361061004c5760003560e01c806305ab421d14610051578063312cf97b1461006d5780633519a2f814610077578063fc0c546a14610093575b600080fd5b61006b60048036038101906100669190610e54565b6100b1565b005b610075610628565b005b610091600480360381019061008c9190610e94565b61095e565b005b61009b610c37565b6040516100a89190610f20565b60405180910390f35b61019a6040518060400160405280601181526020017f62616c616e6365206f662073656e646572000000000000000000000000000000815250600160009054906101000a900473ffffffffffffffffffffffffffffffffffffffff1673ffffffffffffffffffffffffffffffffffffffff166370a08231336040518263ffffffff1660e01b81526004016101459190610f4a565b60206040518083038186803b15801561015d57600080fd5b505afa158015610171573d6000803e3d6000fd5b505050506040513d601f19601f820116820180604052508101906101959190610f7a565b610c5d565b6101d96040518060400160405280600681526020017f616d6f756e74000000000000000000000000000000000000000000000000000081525082610c5d565b80600160009054906101000a900473ffffffffffffffffffffffffffffffffffffffff1673ffffffffffffffffffffffffffffffffffffffff166370a08231336040518263ffffffff1660e01b81526004016102359190610f4a565b60206040518083038186803b15801561024d57600080fd5b505afa158015610261573d6000803e3d6000fd5b505050506040513d601f19601f820116820180604052508101906102859190610f7a565b10156102bd576040517f235586b500000000000000000000000000000000000000000000000000000000815260040160405180910390fd5b600160009054906101000a900473ffffffffffffffffffffffffffffffffffffffff1673ffffffffffffffffffffffffffffffffffffffff1663498171253333846040518463ffffffff1660e01b815260040161031c93929190610fb6565b602060405180830381600087803b15801561033657600080fd5b505af115801561034a573d6000803e3d6000fd5b505050506040513d601f19601f8201168201806040525081019061036e9190611025565b5061045a6040518060400160405280601b81526020017f616c6c6f77616e63652062616c616e6365206f662073656e6465720000000000815250600160009054906101000a900473ffffffffffffffffffffffffffffffffffffffff1673ffffffffffffffffffffffffffffffffffffffff1663dd62ed3e33336040518363ffffffff1660e01b8152600401610405929190611052565b60206040518083038186803b15801561041d57600080fd5b505afa158015610431573d6000803e3d6000fd5b505050506040513d601f19601f820116820180604052508101906104559190610f7a565b610c5d565b600160009054906101000a900473ffffffffffffffffffffffffffffffffffffffff1673ffffffffffffffffffffffffffffffffffffffff166323b872dd3384846040518463ffffffff1660e01b81526004016104b993929190610fb6565b602060405180830381600087803b1580156104d357600080fd5b505af11580156104e7573d6000803e3d6000fd5b505050506040513d601f19601f8201168201806040525081019061050b9190611025565b506105bf600160009054906101000a900473ffffffffffffffffffffffffffffffffffffffff1673ffffffffffffffffffffffffffffffffffffffff166370a08231846040518263ffffffff1660e01b815260040161056a9190610f4a565b60206040518083038186803b15801561058257600080fd5b505afa158015610596573d6000803e3d6000fd5b505050506040513d601f19601f820116820180604052508101906105ba9190610f7a565b610cf9565b8173ffffffffffffffffffffffffffffffffffffffff163373ffffffffffffffffffffffffffffffffffffffff167f3ddb739c68dd901671f09fbe0bc2344c179ed55f8e8110a7c7a3c5665bd9518d8360405161061c919061107b565b60405180910390a35050565b6001600260003373ffffffffffffffffffffffffffffffffffffffff1673ffffffffffffffffffffffffffffffffffffffff16815260200190815260200160002060009054906101000a900460ff1660ff1614156106b2576040517f840f6a0b00000000000000000000000000000000000000000000000000000000815260040160405180910390fd5b6001600260003373ffffffffffffffffffffffffffffffffffffffff1673ffffffffffffffffffffffffffffffffffffffff16815260200190815260200160002060006101000a81548160ff021916908360ff160217905550600160009054906101000a900473ffffffffffffffffffffffffffffffffffffffff1673ffffffffffffffffffffffffffffffffffffffff1663095ea7b3306003546040518363ffffffff1660e01b815260040161076a929190611096565b602060405180830381600087803b15801561078457600080fd5b505af1158015610798573d6000803e3d6000fd5b505050506040513d601f19601f820116820180604052508101906107bc9190611025565b506108a86040518060400160405280601181526020017f617661696c61626c652062616c616e6365000000000000000000000000000000815250600160009054906101000a900473ffffffffffffffffffffffffffffffffffffffff1673ffffffffffffffffffffffffffffffffffffffff1663dd62ed3e30306040518363ffffffff1660e01b8152600401610853929190611052565b60206040518083038186803b15801561086b57600080fd5b505afa15801561087f573d6000803e3d6000fd5b505050506040513d601f19601f820116820180604052508101906108a39190610f7a565b610c5d565b600160009054906101000a900473ffffffffffffffffffffffffffffffffffffffff1673ffffffffffffffffffffffffffffffffffffffff166323b872dd30336003546040518463ffffffff1660e01b815260040161090993929190610fb6565b602060405180830381600087803b15801561092357600080fd5b505af1158015610937573d6000803e3d6000fd5b505050506040513d601f19601f8201168201806040525081019061095b9190611025565b50565b60008054906101000a900473ffffffffffffffffffffffffffffffffffffffff1673ffffffffffffffffffffffffffffffffffffffff163373ffffffffffffffffffffffffffffffffffffffff16146109ec576040517f08c379a00000000000000000000000000000000000000000000000000000000081526004016109e390611142565b60405180910390fd5b80600160009054906101000a900473ffffffffffffffffffffffffffffffffffffffff1673ffffffffffffffffffffffffffffffffffffffff166370a08231336040518263ffffffff1660e01b8152600401610a489190610f4a565b60206040518083038186803b158015610a6057600080fd5b505afa158015610a74573d6000803e3d6000fd5b505050506040513d601f19601f82011682018060405250810190610a989190610f7a565b1015610ad0576040517f235586b500000000000000000000000000000000000000000000000000000000815260040160405180910390fd5b600160009054906101000a900473ffffffffffffffffffffffffffffffffffffffff1673ffffffffffffffffffffffffffffffffffffffff1663498171253333846040518463ffffffff1660e01b8152600401610b2f93929190610fb6565b602060405180830381600087803b158015610b4957600080fd5b505af1158015610b5d573d6000803e3d6000fd5b505050506040513d601f19601f82011682018060405250810190610b819190611025565b50600160009054906101000a900473ffffffffffffffffffffffffffffffffffffffff1673ffffffffffffffffffffffffffffffffffffffff166323b872dd3330846040518463ffffffff1660e01b8152600401610be193929190610fb6565b602060405180830381600087803b158015610bfb57600080fd5b505af1158015610c0f573d6000803e3d6000fd5b505050506040513d601f19601f82011682018060405250810190610c339190611025565b5050565b600160009054906101000a900473ffffffffffffffffffffffffffffffffffffffff1681565b610cf58282604051602401610c739291906111ea565b6040516020818303038152906040527fb60e72cc000000000000000000000000000000000000000000000000000000007bffffffffffffffffffffffffffffffffffffffffffffffffffffffff19166020820180517bffffffffffffffffffffffffffffffffffffffffffffffffffffffff8381831617835250505050610d92565b5050565b610d8f81604051602401610d0d919061107b565b6040516020818303038152906040527ff82c50f1000000000000000000000000000000000000000000000000000000007bffffffffffffffffffffffffffffffffffffffffffffffffffffffff19166020820180517bffffffffffffffffffffffffffffffffffffffffffffffffffffffff8381831617835250505050610d92565b50565b60008151905060006a636f6e736f6c652e6c6f679050602083016000808483855afa5050505050565b600080fd5b600073ffffffffffffffffffffffffffffffffffffffff82169050919050565b6000610deb82610dc0565b9050919050565b610dfb81610de0565b8114610e0657600080fd5b50565b600081359050610e1881610df2565b92915050565b6000819050919050565b610e3181610e1e565b8114610e3c57600080fd5b50565b600081359050610e4e81610e28565b92915050565b60008060408385031215610e6b57610e6a610dbb565b5b6000610e7985828601610e09565b9250506020610e8a85828601610e3f565b9150509250929050565b600060208284031215610eaa57610ea9610dbb565b5b6000610eb884828501610e3f565b91505092915050565b6000819050919050565b6000610ee6610ee1610edc84610dc0565b610ec1565b610dc0565b9050919050565b6000610ef882610ecb565b9050919050565b6000610f0a82610eed565b9050919050565b610f1a81610eff565b82525050565b6000602082019050610f356000830184610f11565b92915050565b610f4481610de0565b82525050565b6000602082019050610f5f6000830184610f3b565b92915050565b600081519050610f7481610e28565b92915050565b600060208284031215610f9057610f8f610dbb565b5b6000610f9e84828501610f65565b91505092915050565b610fb081610e1e565b82525050565b6000606082019050610fcb6000830186610f3b565b610fd86020830185610f3b565b610fe56040830184610fa7565b949350505050565b60008115159050919050565b61100281610fed565b811461100d57600080fd5b50565b60008151905061101f81610ff9565b92915050565b60006020828403121561103b5761103a610dbb565b5b600061104984828501611010565b91505092915050565b60006040820190506110676000830185610f3b565b6110746020830184610f3b565b9392505050565b60006020820190506110906000830184610fa7565b92915050565b60006040820190506110ab6000830185610f3b565b6110b86020830184610fa7565b9392505050565b600082825260208201905092915050565b7f4f6e6c7920746865206f776e65722063616e2063616c6c20746869732066756e60008201527f6374696f6e000000000000000000000000000000000000000000000000000000602082015250565b600061112c6025836110bf565b9150611137826110d0565b604082019050919050565b6000602082019050818103600083015261115b8161111f565b9050919050565b600081519050919050565b60005b8381101561118b578082015181840152602081019050611170565b8381111561119a576000848401525b50505050565b6000601f19601f8301169050919050565b60006111bc82611162565b6111c681856110bf565b93506111d681856020860161116d565b6111df816111a0565b840191505092915050565b6000604082019050818103600083015261120481856111b1565b90506112136020830184610fa7565b939250505056fea26469706673582212200f72e1ac736c90dfcf06b7e3550885cf8b728efdb156ef3423846951a01386d364736f6c63430008090033",
  "devdoc": {
    "kind": "dev",
    "methods": {},
    "version": 1
  },
  "userdoc": {
    "kind": "user",
    "methods": {},
    "version": 1
  },
  "storageLayout": {
    "storage": [
      {
        "astId": 1010,
        "contract": "contracts/Fund.sol:Fund",
        "label": "owner",
        "offset": 0,
        "slot": "0",
        "type": "t_address_payable"
      },
      {
        "astId": 1013,
        "contract": "contracts/Fund.sol:Fund",
        "label": "token",
        "offset": 0,
        "slot": "1",
        "type": "t_contract(FoxxiToken)991"
      },
      {
        "astId": 1017,
        "contract": "contracts/Fund.sol:Fund",
        "label": "s_isAddressRegistered",
        "offset": 0,
        "slot": "2",
        "type": "t_mapping(t_address,t_uint8)"
      },
      {
        "astId": 1019,
        "contract": "contracts/Fund.sol:Fund",
        "label": "s_firstRegisterTokenRewardAmount",
        "offset": 0,
        "slot": "3",
        "type": "t_uint256"
      }
    ],
    "types": {
      "t_address": {
        "encoding": "inplace",
        "label": "address",
        "numberOfBytes": "20"
      },
      "t_address_payable": {
        "encoding": "inplace",
        "label": "address payable",
        "numberOfBytes": "20"
      },
      "t_contract(FoxxiToken)991": {
        "encoding": "inplace",
        "label": "contract FoxxiToken",
        "numberOfBytes": "20"
      },
      "t_mapping(t_address,t_uint8)": {
        "encoding": "mapping",
        "key": "t_address",
        "label": "mapping(address => uint8)",
        "numberOfBytes": "32",
        "value": "t_uint8"
      },
      "t_uint256": {
        "encoding": "inplace",
        "label": "uint256",
        "numberOfBytes": "32"
      },
      "t_uint8": {
        "encoding": "inplace",
        "label": "uint8",
        "numberOfBytes": "1"
      }
    }
  }
}