{
  "address": "0x5D84cC314150Ff9dE186a410b831f0499d3ff2dF",
  "abi": [
    {
      "inputs": [
        {
          "internalType": "address",
          "name": "tokenAddress",
          "type": "address"
        },
        {
          "internalType": "uint256",
          "name": "firstRegisterTokenRewardAmount",
          "type": "uint256"
        }
      ],
      "stateMutability": "payable",
      "type": "constructor"
    },
    {
      "inputs": [],
      "name": "Fund__AlreadyRegistered",
      "type": "error"
    },
    {
      "inputs": [],
      "name": "firstSignUpReward",
      "outputs": [],
      "stateMutability": "nonpayable",
      "type": "function"
    },
    {
      "inputs": [],
      "name": "token",
      "outputs": [
        {
          "internalType": "contract IERC20",
          "name": "",
          "type": "address"
        }
      ],
      "stateMutability": "view",
      "type": "function"
    }
  ],
  "transactionHash": "0xd8ba3f98659f72f04f603e2b22f77797f7932c36497a93adba3cfd887be1b4d4",
  "args": [
    "0x2F3E2C77b72dE939d72a18324885465c46a15e2c",
    "50"
  ],
  "numDeployments": 1,
  "solcInputHash": "1a5dd5a7c93692889f271cebbc392246",
  "bytecode": "0x608060405260405161093f38038061093f8339818101604052810190610025919061014d565b81600160006101000a81548173ffffffffffffffffffffffffffffffffffffffff021916908373ffffffffffffffffffffffffffffffffffffffff160217905550336000806101000a81548173ffffffffffffffffffffffffffffffffffffffff021916908373ffffffffffffffffffffffffffffffffffffffff16021790555080600381905550505061018d565b600080fd5b600073ffffffffffffffffffffffffffffffffffffffff82169050919050565b60006100e4826100b9565b9050919050565b6100f4816100d9565b81146100ff57600080fd5b50565b600081519050610111816100eb565b92915050565b6000819050919050565b61012a81610117565b811461013557600080fd5b50565b60008151905061014781610121565b92915050565b60008060408385031215610164576101636100b4565b5b600061017285828601610102565b925050602061018385828601610138565b9150509250929050565b6107a38061019c6000396000f3fe608060405234801561001057600080fd5b50600436106100365760003560e01c8063312cf97b1461003b578063fc0c546a14610045575b600080fd5b610043610063565b005b61004d610399565b60405161005a9190610503565b60405180910390f35b6001600260003373ffffffffffffffffffffffffffffffffffffffff1673ffffffffffffffffffffffffffffffffffffffff16815260200190815260200160002060009054906101000a900460ff1660ff1614156100ed576040517f840f6a0b00000000000000000000000000000000000000000000000000000000815260040160405180910390fd5b6001600260003373ffffffffffffffffffffffffffffffffffffffff1673ffffffffffffffffffffffffffffffffffffffff16815260200190815260200160002060006101000a81548160ff021916908360ff160217905550600160009054906101000a900473ffffffffffffffffffffffffffffffffffffffff1673ffffffffffffffffffffffffffffffffffffffff1663095ea7b3306003546040518363ffffffff1660e01b81526004016101a5929190610558565b602060405180830381600087803b1580156101bf57600080fd5b505af11580156101d3573d6000803e3d6000fd5b505050506040513d601f19601f820116820180604052508101906101f791906105be565b506102e36040518060400160405280601181526020017f617661696c61626c652062616c616e6365000000000000000000000000000000815250600160009054906101000a900473ffffffffffffffffffffffffffffffffffffffff1673ffffffffffffffffffffffffffffffffffffffff1663dd62ed3e30306040518363ffffffff1660e01b815260040161028e9291906105eb565b60206040518083038186803b1580156102a657600080fd5b505afa1580156102ba573d6000803e3d6000fd5b505050506040513d601f19601f820116820180604052508101906102de9190610640565b6103bf565b600160009054906101000a900473ffffffffffffffffffffffffffffffffffffffff1673ffffffffffffffffffffffffffffffffffffffff166323b872dd30336003546040518463ffffffff1660e01b81526004016103449392919061066d565b602060405180830381600087803b15801561035e57600080fd5b505af1158015610372573d6000803e3d6000fd5b505050506040513d601f19601f8201168201806040525081019061039691906105be565b50565b600160009054906101000a900473ffffffffffffffffffffffffffffffffffffffff1681565b61045782826040516024016103d592919061073d565b6040516020818303038152906040527fb60e72cc000000000000000000000000000000000000000000000000000000007bffffffffffffffffffffffffffffffffffffffffffffffffffffffff19166020820180517bffffffffffffffffffffffffffffffffffffffffffffffffffffffff838183161783525050505061045b565b5050565b60008151905060006a636f6e736f6c652e6c6f679050602083016000808483855afa5050505050565b600073ffffffffffffffffffffffffffffffffffffffff82169050919050565b6000819050919050565b60006104c96104c46104bf84610484565b6104a4565b610484565b9050919050565b60006104db826104ae565b9050919050565b60006104ed826104d0565b9050919050565b6104fd816104e2565b82525050565b600060208201905061051860008301846104f4565b92915050565b600061052982610484565b9050919050565b6105398161051e565b82525050565b6000819050919050565b6105528161053f565b82525050565b600060408201905061056d6000830185610530565b61057a6020830184610549565b9392505050565b600080fd5b60008115159050919050565b61059b81610586565b81146105a657600080fd5b50565b6000815190506105b881610592565b92915050565b6000602082840312156105d4576105d3610581565b5b60006105e2848285016105a9565b91505092915050565b60006040820190506106006000830185610530565b61060d6020830184610530565b9392505050565b61061d8161053f565b811461062857600080fd5b50565b60008151905061063a81610614565b92915050565b60006020828403121561065657610655610581565b5b60006106648482850161062b565b91505092915050565b60006060820190506106826000830186610530565b61068f6020830185610530565b61069c6040830184610549565b949350505050565b600081519050919050565b600082825260208201905092915050565b60005b838110156106de5780820151818401526020810190506106c3565b838111156106ed576000848401525b50505050565b6000601f19601f8301169050919050565b600061070f826106a4565b61071981856106af565b93506107298185602086016106c0565b610732816106f3565b840191505092915050565b600060408201905081810360008301526107578185610704565b90506107666020830184610549565b939250505056fea26469706673582212201f52c4e74b73950ee412da6419b5253b33327bdfacfd79557dfae145c5e0ce7964736f6c63430008090033",
  "devdoc": {
    "kind": "dev",
    "methods": {},
    "version": 1
  },
  "userdoc": {
    "kind": "user",
    "methods": {},
    "version": 1
  },
  "storageLayout": {
    "storage": [
      {
        "astId": 933,
        "contract": "contracts/Fund.sol:Fund",
        "label": "owner",
        "offset": 0,
        "slot": "0",
        "type": "t_address_payable"
      },
      {
        "astId": 936,
        "contract": "contracts/Fund.sol:Fund",
        "label": "token",
        "offset": 0,
        "slot": "1",
        "type": "t_contract(IERC20)664"
      },
      {
        "astId": 940,
        "contract": "contracts/Fund.sol:Fund",
        "label": "s_isAddressRegistered",
        "offset": 0,
        "slot": "2",
        "type": "t_mapping(t_address,t_uint8)"
      },
      {
        "astId": 942,
        "contract": "contracts/Fund.sol:Fund",
        "label": "s_firstRegisterTokenRewardAmount",
        "offset": 0,
        "slot": "3",
        "type": "t_uint256"
      }
    ],
    "types": {
      "t_address": {
        "encoding": "inplace",
        "label": "address",
        "numberOfBytes": "20"
      },
      "t_address_payable": {
        "encoding": "inplace",
        "label": "address payable",
        "numberOfBytes": "20"
      },
      "t_contract(IERC20)664": {
        "encoding": "inplace",
        "label": "contract IERC20",
        "numberOfBytes": "20"
      },
      "t_mapping(t_address,t_uint8)": {
        "encoding": "mapping",
        "key": "t_address",
        "label": "mapping(address => uint8)",
        "numberOfBytes": "32",
        "value": "t_uint8"
      },
      "t_uint256": {
        "encoding": "inplace",
        "label": "uint256",
        "numberOfBytes": "32"
      },
      "t_uint8": {
        "encoding": "inplace",
        "label": "uint8",
        "numberOfBytes": "1"
      }
    }
  }
}